:100000005BEF01F0416775696C6172526F647269F0
:100010006775657A00003231353836303034390052
:1000200050726163746963612038000053656E73B8
:100030006F72205069726F656C6563747269636F6B
:10004000000053656E736F722041637469766F00B0
:1000500053656E736F7220496E61637469766F00C9
:10006000EA6A0B0EE96EEF500DE0020E016E006AB7
:10007000002EFED7012EFBD7970E006E002EFED766
:10008000EF2EF3D7120010B002D08C9601D08C86E0
:10009000959610B202D08C9801D08C88959810B4A7
:1000A00002D08C9A01D08C8A959A10B602D08C9C82
:1000B00001D08C8C959C00008C84959400D000D04D
:1000C0008C9495941200116A9586000E83B6010EE9
:1000D00011129588000E83B8010E006ED89000367C
:1000E00000501112958A000E83BA010E006E003680
:1000F0000036FC0E001600501112958C000E83BCC9
:10010000010E006E003600360036F80E0016005064
:10011000111211C001F0120095869588958A958C70
:100120008C82959200008C8495940000CCDF01C0F5
:1001300010F08C94959400008C84959400D0C3DFCB
:1001400001C00FF08C94959495969598959A959CEE
:100150001038006EF00E001600500F10016EB7EF51
:1001600000F09594959095928C909590D5D701C07C
:100170000FF001BEFBD70D5202E18C9001D08C80B4
:10018000959000008C92959200008C9495940E3876
:100190000F6E0F0E0F160FC010F075DF0E500F0B05
:1001A0000F6E106E70DF1200280E076E0C0E086EB8
:1001B000010E096E060E0A6E8C9495948C909590A3
:1001C0008C92959295969598959A959C95949590E4
:1001D00095920F0E0B6E44DF010E066E065003085B
:1001E00008E3030E106E4FDF050E0B6E39DF062A93
:1001F000F5D7020E106E47DF050E0B6E31DF066A73
:10020000065003080DE3036A0650070FE96E000E5F
:100210000320EA6EEFCF0EF00D6AA3DF062AF0D7B7
:100220006CEF01F00A2C01D003D0400E0B6E01D010
:100230000B6A010E095C0B260B5080090C6E0D6ACF
:100240000E6E8FDF12000850070A07E00B0A0AE063
:10025000060A10E0020A14E018D0010E096E0A6EB8
:10026000E1DF18D00D6A010E0E6E7BDF020E0B6E01
:10027000F7DE10D0010E096E020E0A6ED3DF0AD02F
:100280000D6A100E0E6E6DDF05D0010E0D6E08C0EA
:100290000EF067DF12000900F5520CE0F6CF06F011
:1002A000F7CF07F0F5CF08F0CEDF06C0F6FF07C0A6
:1002B000F7FFF1D71200F86AD09E056A046AC150B0
:1002C000C00B0F09C16E070EB46E000E936EFF0EC9
:1002D000926E936A8A6A68D70C0E086EB4DF010EBC
:1002E000096E0A6E9FDF040EF66E000EF76ED3DF06
:1002F000050E096E020E0A6E95DF160EF66E000EE2
:10030000F76EC9DF0C0E066EFA0E0B6EA9DE062E16
:10031000FBD70C0E086E97DF040E096E010E0A6EF5
:1003200081DF200EF66E000EF76EB5DF020E096E4D
:100330000A6E78DF2C0EF66E000EF76EACDF0C0E38
:10034000066EFA0E0B6E8CDE062EFBD70C0E086EB8
:100350007ADF936A010E8A6E040E066EFA0E0B6E39
:100360007FDE062EFBD7928080A017D0010E096E8B
:100370000A6E58DF420EF66E000EF76E8CDF936A3F
:10038000010E8A6E0C0E066EFA0E0B6E69DE062EDC
:10039000FBD70C0E086E57DF04D0010E096E0A6EF3
:1003A00041DF500EF66E000EF76E75DF936A8A6AB3
:0403B000DAD7030095
:020000040030CA
:0E00000027CC381E0087A1000FC00FE00F4074
:00000001FF
;PIC18F4550
;CRC=6A42  CREATED="09-dic-20 03:04"
